{
  "contractName": "TodoList",
  "abi": [
    {
      "inputs": [],
      "stateMutability": "nonpayable",
      "type": "constructor"
    },
    {
      "anonymous": false,
      "inputs": [
        {
          "indexed": false,
          "internalType": "uint256",
          "name": "id",
          "type": "uint256"
        },
        {
          "indexed": false,
          "internalType": "bool",
          "name": "completed",
          "type": "bool"
        }
      ],
      "name": "taskCompleted",
      "type": "event"
    },
    {
      "anonymous": false,
      "inputs": [
        {
          "indexed": false,
          "internalType": "uint256",
          "name": "id",
          "type": "uint256"
        },
        {
          "indexed": false,
          "internalType": "string",
          "name": "content",
          "type": "string"
        },
        {
          "indexed": false,
          "internalType": "bool",
          "name": "completed",
          "type": "bool"
        }
      ],
      "name": "taskCreated",
      "type": "event"
    },
    {
      "inputs": [
        {
          "internalType": "address",
          "name": "",
          "type": "address"
        },
        {
          "internalType": "uint256",
          "name": "",
          "type": "uint256"
        }
      ],
      "name": "tasks",
      "outputs": [
        {
          "internalType": "uint256",
          "name": "id",
          "type": "uint256"
        },
        {
          "internalType": "string",
          "name": "content",
          "type": "string"
        },
        {
          "internalType": "bool",
          "name": "completed",
          "type": "bool"
        }
      ],
      "stateMutability": "view",
      "type": "function",
      "constant": true
    },
    {
      "inputs": [
        {
          "internalType": "address",
          "name": "",
          "type": "address"
        }
      ],
      "name": "tasksCount",
      "outputs": [
        {
          "internalType": "uint256",
          "name": "",
          "type": "uint256"
        }
      ],
      "stateMutability": "view",
      "type": "function",
      "constant": true
    },
    {
      "inputs": [
        {
          "internalType": "string",
          "name": "_content",
          "type": "string"
        }
      ],
      "name": "createTask",
      "outputs": [],
      "stateMutability": "nonpayable",
      "type": "function"
    },
    {
      "inputs": [
        {
          "internalType": "uint256",
          "name": "_id",
          "type": "uint256"
        }
      ],
      "name": "toggleCompleted",
      "outputs": [],
      "stateMutability": "nonpayable",
      "type": "function"
    },
    {
      "inputs": [],
      "name": "getContractInfo",
      "outputs": [
        {
          "internalType": "string",
          "name": "",
          "type": "string"
        },
        {
          "internalType": "address",
          "name": "",
          "type": "address"
        },
        {
          "internalType": "uint256",
          "name": "",
          "type": "uint256"
        }
      ],
      "stateMutability": "view",
      "type": "function",
      "constant": true
    }
  ],
  "bytecode": "0x608060405234801561001057600080fd5b5060408051808201909152601581527f436f6e747261746f20646573706c656761646f21200000000000000000000000602082015261004e90610053565b610286565b33600081815260016020818152604080842054815160608101835281815280840188815281840187905296865285845282862082875284529190942081518155945180519495919491936100ad9390850192910190610128565b50604091820151600291909101805460ff1916911515919091179055517f7ffc5def84f84c9a24e3f0ad22a6aa1dcf1626b3936280fe2f8e5d38c636b641906100fc90839085906000906101c1565b60405180910390a133600090815260016020526040812080549161011f8361025f565b91905055505050565b82805461013490610224565b90600052602060002090601f016020900481019282610156576000855561019c565b82601f1061016f57805160ff191683800117855561019c565b8280016001018555821561019c579182015b8281111561019c578251825591602001919060010190610181565b506101a89291506101ac565b5090565b5b808211156101a857600081556001016101ad565b600084825260206060818401528451806060850152825b818110156101f4578681018301518582016080015282016101d8565b818111156102055783608083870101525b5093151560408401525050601f91909101601f19160160800192915050565b60028104600182168061023857607f821691505b6020821081141561025957634e487b7160e01b600052602260045260246000fd5b50919050565b600060001982141561027f57634e487b7160e01b81526011600452602481fd5b5060010190565b610756806102956000396000f3fe608060405234801561001057600080fd5b50600436106100575760003560e01c8063111002aa1461005c578063455f5024146100715780637149d2e4146100845780637b219c39146100af5780637cc1f867146100cf575b600080fd5b61006f61006a366004610532565b6100e6565b005b61006f61007f3660046105d3565b6101bb565b610097610092366004610509565b610325565b6040516100a69392919061067d565b60405180910390f35b6100c26100bd3660046104e8565b6103db565b6040516100a69190610664565b6100d76103ed565b6040516100a693929190610636565b33600081815260016020818152604080842054815160608101835281815280840188815281840187905296865285845282862082875284529190942081518155945180519495919491936101409390850192910190610433565b50604091820151600291909101805460ff1916911515919091179055517f7ffc5def84f84c9a24e3f0ad22a6aa1dcf1626b3936280fe2f8e5d38c636b6419061018f908390859060009061067d565b60405180910390a13360009081526001602052604081208054916101b2836106e3565b91905055505050565b3360009081526020818152604080832084845282528083208151606081019092528054825260018101805492939192918401916101f7906106a8565b80601f0160208091040260200160405190810160405280929190818152602001828054610223906106a8565b80156102705780601f1061024557610100808354040283529160200191610270565b820191906000526020600020905b81548152906001019060200180831161025357829003601f168201915b50505091835250506002919091015460ff1615156020918201526040808301805115905233600090815280835281812086825283522082518155828201518051939450849391926102c992600185019290910190610433565b50604091820151600291909101805460ff19169115159190911790558181015190517ffc8c3643622669a0bb21133ffa1738f6d5c2df6b162da4fed93691abb53c4656916103199185919061066d565b60405180910390a15050565b60006020818152928152604080822090935290815220805460018201805491929161034f906106a8565b80601f016020809104026020016040519081016040528092919081815260200182805461037b906106a8565b80156103c85780601f1061039d576101008083540402835291602001916103c8565b820191906000526020600020905b8154815290600101906020018083116103ab57829003601f168201915b5050506002909301549192505060ff1683565b60016020526000908152604090205481565b336000908152600160209081526040918290205482518084019093526016835275151bd91bd31a5cdd0814db585c9d10dbdb9d1c9858dd60521b91830191909152309192565b82805461043f906106a8565b90600052602060002090601f01602090048101928261046157600085556104a7565b82601f1061047a57805160ff19168380011785556104a7565b828001600101855582156104a7579182015b828111156104a757825182559160200191906001019061048c565b506104b39291506104b7565b5090565b5b808211156104b357600081556001016104b8565b80356001600160a01b03811681146104e357600080fd5b919050565b6000602082840312156104f9578081fd5b610502826104cc565b9392505050565b6000806040838503121561051b578081fd5b610524836104cc565b946020939093013593505050565b60006020808385031215610544578182fd5b823567ffffffffffffffff8082111561055b578384fd5b818501915085601f83011261056e578384fd5b8135818111156105805761058061070a565b604051601f8201601f19168101850183811182821017156105a3576105a361070a565b60405281815283820185018810156105b9578586fd5b818585018683013790810190930193909352509392505050565b6000602082840312156105e4578081fd5b5035919050565b60008151808452815b81811015610610576020818501810151868301820152016105f4565b818111156106215782602083870101525b50601f01601f19169290920160200192915050565b60006060825261064960608301866105eb565b6001600160a01b039490941660208301525060400152919050565b90815260200190565b9182521515602082015260400190565b60008482526060602083015261069660608301856105eb565b90508215156040830152949350505050565b6002810460018216806106bc57607f821691505b602082108114156106dd57634e487b7160e01b600052602260045260246000fd5b50919050565b600060001982141561070357634e487b7160e01b81526011600452602481fd5b5060010190565b634e487b7160e01b600052604160045260246000fdfea264697066735822122060369767605329757c5531cd81a829302b7d2eaa62498a6cf28620fa080bae1164736f6c63430008000033",
  "immutableReferences": {},
  "source": "// SPDX-License-Identifier: MIT\npragma solidity ^0.8.0;\n\ncontract TodoList {\n  // Variables que tiene una tarea\n  struct Task{\n    uint id;\n    string content;\n    bool completed;\n  }\n\n  // Estructuras de eventos: \n  //    Para despus emitir los eventos a la blockchain cuando sucedan\n  event taskCreated(\n    uint id,\n    string content,\n    bool completed\n  );\n\n  event taskCompleted(\n    uint id,\n    bool completed\n  );\n\n  // CONSTRUCTOR: \n  //    funcin que se ejecutar cuando se despligue el contrato en la BlockChain\n  constructor(){\n    createTask(\"Contrato desplegado! \");\n  }\n\n  // MAPPING: recibe clave y emite otro tipo de dato (una address --> un entero) \n  //    Para que cada billetera de Ethereum tenga su propia TodoList\n  // Funcin mapping que devuelve otra funcin mapping\n  mapping(address => mapping(uint => Task)) public tasks;\n  // Funcin mapping que devuelve un nmero entero (n tareas que tiene una billetera)\n  mapping(address => uint) public tasksCount;\n\n  // FUNCIONES:\n  // Funcin para crear Tareas: recibe el contenido de la tarea\n  function createTask(string memory _content) public{\n    uint taskCount = tasksCount[msg.sender];                          // Obtenemos el id de la tarea mediante la funcin mapping tasksCount\n    tasks[msg.sender][taskCount] = Task(taskCount, _content, false);  // completed = false siempre que se crea una tarea\n    emit taskCreated(taskCount, _content, false);                     // Emitimos un evento para que se registre la tarea en la BlockChain\n    tasksCount[msg.sender] ++;                                        // Aumentamos el nmero de tareas que tiene la billetera\n  }\n\n  // Funcin para cambiar el estado de las tareas: recibe el ID de la tarea a completar\n  function toggleCompleted(uint _id) public{\n    Task memory task = tasks[msg.sender][_id];  // Obtenemos la tarea completa mediante funcin mapping, pasamos dir. billetera y id tarea\n    task.completed = !task.completed;           // Cambiamos el estado de la variable completed\n    tasks[msg.sender][_id] = task;              // Guardamos los cambios en la tarea\n    emit taskCompleted(_id, task.completed);    // Emitimos un evento de que se ha cambiado el estado para que se registre en la BlockChain \n  }\n\n  // Funcin que devuelve la informacin sobre el contrato\n  function getContractInfo() public view returns (string memory, address, uint) { // public view --> No modifica el estado del contrato\n    return(\"TodoList SmartContract\", address(this), tasksCount[msg.sender]);     \n  }\n\n  /*\n  string public name = \"Carlos\";\n \n  constructor() {\n    // Agregar assert con detalles\n    assert(bytes(name).length > 0);\n  }\n  */\n}\n",
  "sourcePath": "/Users/carlosfdezdeus/Documents/Teleco/4 Teleco/NST - Nuevos Servicios Telematicos/Dapps/API-todo-list/contracts/TodoList.sol",
  "compiler": {
    "name": "solc",
    "version": "0.8.0+commit.c7dfd78e.Emscripten.clang"
  },
  "schemaVersion": "3.4.16",
  "updatedAt": "2023-11-27T08:31:07.713Z",
  "networkType": "ethereum",
  "devdoc": {
    "kind": "dev",
    "methods": {},
    "version": 1
  },
  "userdoc": {
    "kind": "user",
    "methods": {},
    "version": 1
  }
}